{
  "contractName": "LemonadeSale",
  "abi": [
    {
      "constant": true,
      "inputs": [
        {
          "name": "_interfaceId",
          "type": "bytes4"
        }
      ],
      "name": "supportsInterface",
      "outputs": [
        {
          "name": "",
          "type": "bool"
        }
      ],
      "payable": false,
      "stateMutability": "view",
      "type": "function"
    },
    {
      "constant": true,
      "inputs": [],
      "name": "name",
      "outputs": [
        {
          "name": "",
          "type": "string"
        }
      ],
      "payable": false,
      "stateMutability": "view",
      "type": "function"
    },
    {
      "constant": true,
      "inputs": [
        {
          "name": "_tokenId",
          "type": "uint256"
        }
      ],
      "name": "getApproved",
      "outputs": [
        {
          "name": "_operator",
          "type": "address"
        }
      ],
      "payable": false,
      "stateMutability": "view",
      "type": "function"
    },
    {
      "constant": false,
      "inputs": [
        {
          "name": "_to",
          "type": "address"
        },
        {
          "name": "_tokenId",
          "type": "uint256"
        }
      ],
      "name": "approve",
      "outputs": [],
      "payable": false,
      "stateMutability": "nonpayable",
      "type": "function"
    },
    {
      "constant": true,
      "inputs": [],
      "name": "totalSupply",
      "outputs": [
        {
          "name": "",
          "type": "uint256"
        }
      ],
      "payable": false,
      "stateMutability": "view",
      "type": "function"
    },
    {
      "constant": false,
      "inputs": [
        {
          "name": "_lemonadeId",
          "type": "uint256"
        }
      ],
      "name": "consumeLemonade",
      "outputs": [],
      "payable": false,
      "stateMutability": "nonpayable",
      "type": "function"
    },
    {
      "constant": true,
      "inputs": [],
      "name": "InterfaceId_ERC165",
      "outputs": [
        {
          "name": "",
          "type": "bytes4"
        }
      ],
      "payable": false,
      "stateMutability": "view",
      "type": "function"
    },
    {
      "constant": false,
      "inputs": [
        {
          "name": "_from",
          "type": "address"
        },
        {
          "name": "_to",
          "type": "address"
        },
        {
          "name": "_tokenId",
          "type": "uint256"
        }
      ],
      "name": "transferFrom",
      "outputs": [],
      "payable": false,
      "stateMutability": "nonpayable",
      "type": "function"
    },
    {
      "constant": true,
      "inputs": [
        {
          "name": "_owner",
          "type": "address"
        },
        {
          "name": "_index",
          "type": "uint256"
        }
      ],
      "name": "tokenOfOwnerByIndex",
      "outputs": [
        {
          "name": "",
          "type": "uint256"
        }
      ],
      "payable": false,
      "stateMutability": "view",
      "type": "function"
    },
    {
      "constant": false,
      "inputs": [
        {
          "name": "_from",
          "type": "address"
        },
        {
          "name": "_to",
          "type": "address"
        },
        {
          "name": "_tokenId",
          "type": "uint256"
        }
      ],
      "name": "safeTransferFrom",
      "outputs": [],
      "payable": false,
      "stateMutability": "nonpayable",
      "type": "function"
    },
    {
      "constant": true,
      "inputs": [
        {
          "name": "_tokenId",
          "type": "uint256"
        }
      ],
      "name": "exists",
      "outputs": [
        {
          "name": "_exists",
          "type": "bool"
        }
      ],
      "payable": false,
      "stateMutability": "view",
      "type": "function"
    },
    {
      "constant": true,
      "inputs": [
        {
          "name": "_index",
          "type": "uint256"
        }
      ],
      "name": "tokenByIndex",
      "outputs": [
        {
          "name": "",
          "type": "uint256"
        }
      ],
      "payable": false,
      "stateMutability": "view",
      "type": "function"
    },
    {
      "constant": true,
      "inputs": [
        {
          "name": "_tokenId",
          "type": "uint256"
        }
      ],
      "name": "ownerOf",
      "outputs": [
        {
          "name": "_owner",
          "type": "address"
        }
      ],
      "payable": false,
      "stateMutability": "view",
      "type": "function"
    },
    {
      "constant": true,
      "inputs": [
        {
          "name": "_lemonadeId",
          "type": "uint256"
        }
      ],
      "name": "getLemonadeCoin",
      "outputs": [
        {
          "name": "",
          "type": "uint256"
        }
      ],
      "payable": false,
      "stateMutability": "view",
      "type": "function"
    },
    {
      "constant": true,
      "inputs": [
        {
          "name": "_owner",
          "type": "address"
        }
      ],
      "name": "balanceOf",
      "outputs": [
        {
          "name": "_balance",
          "type": "uint256"
        }
      ],
      "payable": false,
      "stateMutability": "view",
      "type": "function"
    },
    {
      "constant": false,
      "inputs": [],
      "name": "renounceOwnership",
      "outputs": [],
      "payable": false,
      "stateMutability": "nonpayable",
      "type": "function"
    },
    {
      "constant": true,
      "inputs": [
        {
          "name": "",
          "type": "uint256"
        }
      ],
      "name": "lemonadeToOwner",
      "outputs": [
        {
          "name": "",
          "type": "address"
        }
      ],
      "payable": false,
      "stateMutability": "view",
      "type": "function"
    },
    {
      "constant": false,
      "inputs": [
        {
          "name": "_name",
          "type": "string"
        },
        {
          "name": "_ingredients",
          "type": "uint8"
        }
      ],
      "name": "createLemonade",
      "outputs": [],
      "payable": false,
      "stateMutability": "nonpayable",
      "type": "function"
    },
    {
      "constant": true,
      "inputs": [],
      "name": "owner",
      "outputs": [
        {
          "name": "",
          "type": "address"
        }
      ],
      "payable": false,
      "stateMutability": "view",
      "type": "function"
    },
    {
      "constant": true,
      "inputs": [],
      "name": "symbol",
      "outputs": [
        {
          "name": "",
          "type": "string"
        }
      ],
      "payable": false,
      "stateMutability": "view",
      "type": "function"
    },
    {
      "constant": false,
      "inputs": [
        {
          "name": "_to",
          "type": "address"
        },
        {
          "name": "_approved",
          "type": "bool"
        }
      ],
      "name": "setApprovalForAll",
      "outputs": [],
      "payable": false,
      "stateMutability": "nonpayable",
      "type": "function"
    },
    {
      "constant": true,
      "inputs": [
        {
          "name": "_lemonadeId",
          "type": "uint256"
        }
      ],
      "name": "getLemonadeIngredients",
      "outputs": [
        {
          "name": "",
          "type": "uint256"
        }
      ],
      "payable": false,
      "stateMutability": "view",
      "type": "function"
    },
    {
      "constant": true,
      "inputs": [
        {
          "name": "",
          "type": "uint256"
        }
      ],
      "name": "lemonades",
      "outputs": [
        {
          "name": "name",
          "type": "string"
        },
        {
          "name": "ingredients",
          "type": "uint8"
        },
        {
          "name": "consumed",
          "type": "bool"
        },
        {
          "name": "coin",
          "type": "uint256"
        }
      ],
      "payable": false,
      "stateMutability": "view",
      "type": "function"
    },
    {
      "constant": false,
      "inputs": [
        {
          "name": "_tokenId",
          "type": "uint256"
        }
      ],
      "name": "takeOwnership",
      "outputs": [],
      "payable": false,
      "stateMutability": "nonpayable",
      "type": "function"
    },
    {
      "constant": false,
      "inputs": [
        {
          "name": "_from",
          "type": "address"
        },
        {
          "name": "_to",
          "type": "address"
        },
        {
          "name": "_tokenId",
          "type": "uint256"
        },
        {
          "name": "_data",
          "type": "bytes"
        }
      ],
      "name": "safeTransferFrom",
      "outputs": [],
      "payable": false,
      "stateMutability": "nonpayable",
      "type": "function"
    },
    {
      "constant": true,
      "inputs": [
        {
          "name": "_coinId",
          "type": "uint256"
        }
      ],
      "name": "getCoinName",
      "outputs": [
        {
          "name": "",
          "type": "string"
        }
      ],
      "payable": false,
      "stateMutability": "view",
      "type": "function"
    },
    {
      "constant": true,
      "inputs": [
        {
          "name": "_tokenId",
          "type": "uint256"
        }
      ],
      "name": "tokenURI",
      "outputs": [
        {
          "name": "",
          "type": "string"
        }
      ],
      "payable": false,
      "stateMutability": "view",
      "type": "function"
    },
    {
      "constant": true,
      "inputs": [
        {
          "name": "_owner",
          "type": "address"
        },
        {
          "name": "_operator",
          "type": "address"
        }
      ],
      "name": "isApprovedForAll",
      "outputs": [
        {
          "name": "",
          "type": "bool"
        }
      ],
      "payable": false,
      "stateMutability": "view",
      "type": "function"
    },
    {
      "constant": true,
      "inputs": [
        {
          "name": "_name",
          "type": "string"
        }
      ],
      "name": "getCoinId",
      "outputs": [
        {
          "name": "",
          "type": "uint256"
        }
      ],
      "payable": false,
      "stateMutability": "view",
      "type": "function"
    },
    {
      "constant": false,
      "inputs": [
        {
          "name": "_newOwner",
          "type": "address"
        }
      ],
      "name": "transferOwnership",
      "outputs": [],
      "payable": false,
      "stateMutability": "nonpayable",
      "type": "function"
    },
    {
      "anonymous": false,
      "inputs": [
        {
          "indexed": false,
          "name": "lemonadeId",
          "type": "uint256"
        },
        {
          "indexed": false,
          "name": "price",
          "type": "uint256"
        }
      ],
      "name": "SaleCreated",
      "type": "event"
    },
    {
      "anonymous": false,
      "inputs": [
        {
          "indexed": false,
          "name": "lemonadeId",
          "type": "uint256"
        },
        {
          "indexed": false,
          "name": "price",
          "type": "uint256"
        },
        {
          "indexed": false,
          "name": "buyer",
          "type": "address"
        }
      ],
      "name": "SaleSuccessful",
      "type": "event"
    },
    {
      "anonymous": false,
      "inputs": [
        {
          "indexed": false,
          "name": "lemonadeId",
          "type": "uint256"
        }
      ],
      "name": "SaleCancelled",
      "type": "event"
    },
    {
      "anonymous": false,
      "inputs": [
        {
          "indexed": false,
          "name": "lemonadeId",
          "type": "uint256"
        },
        {
          "indexed": false,
          "name": "name",
          "type": "string"
        },
        {
          "indexed": false,
          "name": "ingredients",
          "type": "uint8"
        }
      ],
      "name": "NewLemonade",
      "type": "event"
    },
    {
      "anonymous": false,
      "inputs": [
        {
          "indexed": true,
          "name": "previousOwner",
          "type": "address"
        }
      ],
      "name": "OwnershipRenounced",
      "type": "event"
    },
    {
      "anonymous": false,
      "inputs": [
        {
          "indexed": true,
          "name": "previousOwner",
          "type": "address"
        },
        {
          "indexed": true,
          "name": "newOwner",
          "type": "address"
        }
      ],
      "name": "OwnershipTransferred",
      "type": "event"
    },
    {
      "anonymous": false,
      "inputs": [
        {
          "indexed": true,
          "name": "_from",
          "type": "address"
        },
        {
          "indexed": true,
          "name": "_to",
          "type": "address"
        },
        {
          "indexed": true,
          "name": "_tokenId",
          "type": "uint256"
        }
      ],
      "name": "Transfer",
      "type": "event"
    },
    {
      "anonymous": false,
      "inputs": [
        {
          "indexed": true,
          "name": "_owner",
          "type": "address"
        },
        {
          "indexed": true,
          "name": "_approved",
          "type": "address"
        },
        {
          "indexed": true,
          "name": "_tokenId",
          "type": "uint256"
        }
      ],
      "name": "Approval",
      "type": "event"
    },
    {
      "anonymous": false,
      "inputs": [
        {
          "indexed": true,
          "name": "_owner",
          "type": "address"
        },
        {
          "indexed": true,
          "name": "_operator",
          "type": "address"
        },
        {
          "indexed": false,
          "name": "_approved",
          "type": "bool"
        }
      ],
      "name": "ApprovalForAll",
      "type": "event"
    },
    {
      "constant": false,
      "inputs": [
        {
          "name": "_lemonadeId",
          "type": "uint256"
        },
        {
          "name": "_price",
          "type": "uint256"
        }
      ],
      "name": "createSale",
      "outputs": [],
      "payable": true,
      "stateMutability": "payable",
      "type": "function"
    },
    {
      "constant": false,
      "inputs": [
        {
          "name": "_lemonadeId",
          "type": "uint256"
        }
      ],
      "name": "cancelSale",
      "outputs": [],
      "payable": true,
      "stateMutability": "payable",
      "type": "function"
    },
    {
      "constant": false,
      "inputs": [
        {
          "name": "_lemonadeId",
          "type": "uint256"
        }
      ],
      "name": "_buy",
      "outputs": [],
      "payable": true,
      "stateMutability": "payable",
      "type": "function"
    }
  ],
  "bytecode": "0x60806040526040805190810160405280600c81526020017f4c656d6f6e616465436f696e00000000000000000000000000000000000000008152506040805190810160405280600381526020017f4c4d430000000000000000000000000000000000000000000000000000000000815250620000ad6301ffc9a77c0100000000000000000000000000000000000000000000000000000000026200021c640100000000026401000000009004565b620000ea6380ac58cd7c0100000000000000000000000000000000000000000000000000000000026200021c640100000000026401000000009004565b62000127634f558e797c0100000000000000000000000000000000000000000000000000000000026200021c640100000000026401000000009004565b81600590805190602001906200013f929190620002da565b50806006908051906020019062000158929190620002da565b506200019663780e9d637c0100000000000000000000000000000000000000000000000000000000026200021c640100000000026401000000009004565b620001d3635b5e139f7c0100000000000000000000000000000000000000000000000000000000026200021c640100000000026401000000009004565b505033600e60006101000a81548173ffffffffffffffffffffffffffffffffffffffff021916908373ffffffffffffffffffffffffffffffffffffffff16021790555062000389565b63ffffffff7c010000000000000000000000000000000000000000000000000000000002817bffffffffffffffffffffffffffffffffffffffffffffffffffffffff1916141515156200026e57600080fd5b6001600080837bffffffffffffffffffffffffffffffffffffffffffffffffffffffff19167bffffffffffffffffffffffffffffffffffffffffffffffffffffffff1916815260200190815260200160002060006101000a81548160ff02191690831515021790555050565b828054600181600116156101000203166002900490600052602060002090601f016020900481019282601f106200031d57805160ff19168380011785556200034e565b828001600101855582156200034e579182015b828111156200034d57825182559160200191906001019062000330565b5b5090506200035d919062000361565b5090565b6200038691905b808211156200038257600081600090555060010162000368565b5090565b90565b6133c180620003996000396000f3006080604052600436106101a1576000357c0100000000000000000000000000000000000000000000000000000000900463ffffffff16806301ffc9a7146101a657806306fdde031461020a578063081812fc1461029a578063095ea7b31461030757806318160ddd1461035457806319a83d661461037f57806319fa8f50146103ac57806323b872dd14610415578063282303b5146104825780632f745c59146104a257806342842e0e146105035780634f558e79146105705780634f6ccce7146105b55780636019061b146105f65780636352211e146106205780636bea0dad1461068d57806370a08231146106ce578063715018a614610725578063750929de1461073c57806388056424146107a95780638da5cb5b146107f157806395d89b4114610848578063a22cb465146108d8578063a46fe22b14610927578063b2cf38e314610968578063b2e6ceeb14610a2d578063b88d4fde14610a5a578063bd94b00514610b0d578063c1f0ecbd14610b2d578063c87b56dd14610bd3578063e985e9c514610c79578063eabfee1414610cf4578063f2fde38b14610d71575b600080fd5b3480156101b257600080fd5b506101f060048036038101908080357bffffffffffffffffffffffffffffffffffffffffffffffffffffffff19169060200190929190505050610db4565b604051808215151515815260200191505060405180910390f35b34801561021657600080fd5b5061021f610e1b565b6040518080602001828103825283818151815260200191508051906020019080838360005b8381101561025f578082015181840152602081019050610244565b50505050905090810190601f16801561028c5780820380516001836020036101000a031916815260200191505b509250505060405180910390f35b3480156102a657600080fd5b506102c560048036038101908080359060200190929190505050610ebd565b604051808273ffffffffffffffffffffffffffffffffffffffff1673ffffffffffffffffffffffffffffffffffffffff16815260200191505060405180910390f35b34801561031357600080fd5b50610352600480360381019080803573ffffffffffffffffffffffffffffffffffffffff16906020019092919080359060200190929190505050610efa565b005b34801561036057600080fd5b5061036961101a565b6040518082815260200191505060405180910390f35b34801561038b57600080fd5b506103aa60048036038101908080359060200190929190505050611027565b005b3480156103b857600080fd5b506103c1611190565b60405180827bffffffffffffffffffffffffffffffffffffffffffffffffffffffff19167bffffffffffffffffffffffffffffffffffffffffffffffffffffffff1916815260200191505060405180910390f35b34801561042157600080fd5b50610480600480360381019080803573ffffffffffffffffffffffffffffffffffffffff169060200190929190803573ffffffffffffffffffffffffffffffffffffffff169060200190929190803590602001909291905050506111b7565b005b6104a060048036038101908080359060200190929190505050611236565b005b3480156104ae57600080fd5b506104ed600480360381019080803573ffffffffffffffffffffffffffffffffffffffff16906020019092919080359060200190929190505050611465565b6040518082815260200191505060405180910390f35b34801561050f57600080fd5b5061056e600480360381019080803573ffffffffffffffffffffffffffffffffffffffff169060200190929190803573ffffffffffffffffffffffffffffffffffffffff169060200190929190803590602001909291905050506114dc565b005b34801561057c57600080fd5b5061059b60048036038101908080359060200190929190505050611514565b604051808215151515815260200191505060405180910390f35b3480156105c157600080fd5b506105e060048036038101908080359060200190929190505050611586565b6040518082815260200191505060405180910390f35b61061e60048036038101908080359060200190929190803590602001909291905050506115be565b005b34801561062c57600080fd5b5061064b6004803603810190808035906020019092919050505061170e565b604051808273ffffffffffffffffffffffffffffffffffffffff1673ffffffffffffffffffffffffffffffffffffffff16815260200191505060405180910390f35b34801561069957600080fd5b506106b86004803603810190808035906020019092919050505061174b565b6040518082815260200191505060405180910390f35b3480156106da57600080fd5b5061070f600480360381019080803573ffffffffffffffffffffffffffffffffffffffff169060200190929190505050611775565b6040518082815260200191505060405180910390f35b34801561073157600080fd5b5061073a6117be565b005b34801561074857600080fd5b50610767600480360381019080803590602001909291905050506118c3565b604051808273ffffffffffffffffffffffffffffffffffffffff1673ffffffffffffffffffffffffffffffffffffffff16815260200191505060405180910390f35b3480156107b557600080fd5b506107ef600480360381019080803590602001908201803590602001919091929391929390803560ff1690602001909291905050506118f6565b005b3480156107fd57600080fd5b5061080661194a565b604051808273ffffffffffffffffffffffffffffffffffffffff1673ffffffffffffffffffffffffffffffffffffffff16815260200191505060405180910390f35b34801561085457600080fd5b5061085d611970565b6040518080602001828103825283818151815260200191508051906020019080838360005b8381101561089d578082015181840152602081019050610882565b50505050905090810190601f1680156108ca5780820380516001836020036101000a031916815260200191505b509250505060405180910390f35b3480156108e457600080fd5b50610925600480360381019080803573ffffffffffffffffffffffffffffffffffffffff169060200190929190803515159060200190929190505050611a12565b005b34801561093357600080fd5b5061095260048036038101908080359060200190929190505050611b4e565b6040518082815260200191505060405180910390f35b34801561097457600080fd5b5061099360048036038101908080359060200190929190505050611b88565b60405180806020018560ff1660ff16815260200184151515158152602001838152602001828103825286818151815260200191508051906020019080838360005b838110156109ef5780820151818401526020810190506109d4565b50505050905090810190601f168015610a1c5780820380516001836020036101000a031916815260200191505b509550505050505060405180910390f35b348015610a3957600080fd5b50610a5860048036038101908080359060200190929190505050611c79565b005b348015610a6657600080fd5b50610b0b600480360381019080803573ffffffffffffffffffffffffffffffffffffffff169060200190929190803573ffffffffffffffffffffffffffffffffffffffff16906020019092919080359060200190929190803590602001908201803590602001908080601f0160208091040260200160405190810160405280939291908181526020018383808284378201915050505050509192919290505050611d02565b005b610b2b60048036038101908080359060200190929190505050611d2a565b005b348015610b3957600080fd5b50610b5860048036038101908080359060200190929190505050611ddd565b6040518080602001828103825283818151815260200191508051906020019080838360005b83811015610b98578082015181840152602081019050610b7d565b50505050905090810190601f168015610bc55780820380516001836020036101000a031916815260200191505b509250505060405180910390f35b348015610bdf57600080fd5b50610bfe60048036038101908080359060200190929190505050611e92565b6040518080602001828103825283818151815260200191508051906020019080838360005b83811015610c3e578082015181840152602081019050610c23565b50505050905090810190601f168015610c6b5780820380516001836020036101000a031916815260200191505b509250505060405180910390f35b348015610c8557600080fd5b50610cda600480360381019080803573ffffffffffffffffffffffffffffffffffffffff169060200190929190803573ffffffffffffffffffffffffffffffffffffffff169060200190929190505050611f5b565b604051808215151515815260200191505060405180910390f35b348015610d0057600080fd5b50610d5b600480360381019080803590602001908201803590602001908080601f0160208091040260200160405190810160405280939291908181526020018383808284378201915050505050509192919290505050611fef565b6040518082815260200191505060405180910390f35b348015610d7d57600080fd5b50610db2600480360381019080803573ffffffffffffffffffffffffffffffffffffffff169060200190929190505050612064565b005b6000806000837bffffffffffffffffffffffffffffffffffffffffffffffffffffffff19167bffffffffffffffffffffffffffffffffffffffffffffffffffffffff1916815260200190815260200160002060009054906101000a900460ff169050919050565b606060058054600181600116156101000203166002900480601f016020809104026020016040519081016040528092919081815260200182805460018160011615610100020316600290048015610eb35780601f10610e8857610100808354040283529160200191610eb3565b820191906000526020600020905b815481529060010190602001808311610e9657829003601f168201915b5050505050905090565b60006012600083815260200190815260200160002060009054906101000a900473ffffffffffffffffffffffffffffffffffffffff169050919050565b806010600082815260200190815260200160002060009054906101000a900473ffffffffffffffffffffffffffffffffffffffff1673ffffffffffffffffffffffffffffffffffffffff163373ffffffffffffffffffffffffffffffffffffffff16141515610f6857600080fd5b826012600084815260200190815260200160002060006101000a81548173ffffffffffffffffffffffffffffffffffffffff021916908373ffffffffffffffffffffffffffffffffffffffff160217905550818373ffffffffffffffffffffffffffffffffffffffff163373ffffffffffffffffffffffffffffffffffffffff167f8c5be1e5ebec7d5bd14f71427d1e84f3dd0314c0f7b2291e5b200ac8c7c3b92560405160405180910390a4505050565b6000600980549050905090565b3373ffffffffffffffffffffffffffffffffffffffff166010600083815260200190815260200160002060009054906101000a900473ffffffffffffffffffffffffffffffffffffffff1673ffffffffffffffffffffffffffffffffffffffff1614151561109457600080fd5b6001600f828154811015156110a557fe5b906000526020600020906003020160010160016101000a81548160ff0219169083151502179055506110f733600f838154811015156110e057fe5b9060005260206000209060030201600201546120cc565b61114a6001601160003373ffffffffffffffffffffffffffffffffffffffff1673ffffffffffffffffffffffffffffffffffffffff168152602001908152602001600020546120da90919063ffffffff16565b601160003373ffffffffffffffffffffffffffffffffffffffff1673ffffffffffffffffffffffffffffffffffffffff1681526020019081526020016000208190555050565b6301ffc9a77c01000000000000000000000000000000000000000000000000000000000281565b806010600082815260200190815260200160002060009054906101000a900473ffffffffffffffffffffffffffffffffffffffff1673ffffffffffffffffffffffffffffffffffffffff163373ffffffffffffffffffffffffffffffffffffffff1614151561122557600080fd5b6112308484846120f3565b50505050565b60008060006014600085815260200190815260200160002092508260010154341015151561126357600080fd5b8260000160009054906101000a900473ffffffffffffffffffffffffffffffffffffffff1691508260010154905061129a846122d1565b8173ffffffffffffffffffffffffffffffffffffffff166108fc829081150290604051600060405180830381858888f193505050501580156112e0573d6000803e3d6000fd5b50336010600086815260200190815260200160002060006101000a81548173ffffffffffffffffffffffffffffffffffffffff021916908373ffffffffffffffffffffffffffffffffffffffff1602179055506113866001601160008573ffffffffffffffffffffffffffffffffffffffff1673ffffffffffffffffffffffffffffffffffffffff168152602001908152602001600020546120da90919063ffffffff16565b601160008473ffffffffffffffffffffffffffffffffffffffff1673ffffffffffffffffffffffffffffffffffffffff1681526020019081526020016000208190555061141c6001601160003373ffffffffffffffffffffffffffffffffffffffff1673ffffffffffffffffffffffffffffffffffffffff1681526020019081526020016000205461231990919063ffffffff16565b601160003373ffffffffffffffffffffffffffffffffffffffff1673ffffffffffffffffffffffffffffffffffffffff1681526020019081526020016000208190555050505050565b600061147083611775565b8210151561147d57600080fd5b600760008473ffffffffffffffffffffffffffffffffffffffff1673ffffffffffffffffffffffffffffffffffffffff168152602001908152602001600020828154811015156114c957fe5b9060005260206000200154905092915050565b806114e73382612335565b15156114f257600080fd5b61150e8484846020604051908101604052806000815250611d02565b50505050565b6000806010600084815260200190815260200160002060009054906101000a900473ffffffffffffffffffffffffffffffffffffffff169050600073ffffffffffffffffffffffffffffffffffffffff168173ffffffffffffffffffffffffffffffffffffffff161415915050919050565b600061159061101a565b8210151561159d57600080fd5b6009828154811015156115ac57fe5b90600052602060002001549050919050565b6115c661319e565b826010600082815260200190815260200160002060009054906101000a900473ffffffffffffffffffffffffffffffffffffffff1673ffffffffffffffffffffffffffffffffffffffff163373ffffffffffffffffffffffffffffffffffffffff1614151561163457600080fd5b60408051908101604052803373ffffffffffffffffffffffffffffffffffffffff168152602001848152509150816014600086815260200190815260200160002060008201518160000160006101000a81548173ffffffffffffffffffffffffffffffffffffffff021916908373ffffffffffffffffffffffffffffffffffffffff160217905550602082015181600101559050507f35f25ba6c68be9e7f0a8a50f4d284bb035a4a21d856a0e7d3fd7945079c5ab308484604051808381526020018281526020019250505060405180910390a150505050565b60006010600083815260200190815260200160002060009054906101000a900473ffffffffffffffffffffffffffffffffffffffff169050919050565b6000600f8281548110151561175c57fe5b9060005260206000209060030201600201549050919050565b6000601160008373ffffffffffffffffffffffffffffffffffffffff1673ffffffffffffffffffffffffffffffffffffffff168152602001908152602001600020549050919050565b600e60009054906101000a900473ffffffffffffffffffffffffffffffffffffffff1673ffffffffffffffffffffffffffffffffffffffff163373ffffffffffffffffffffffffffffffffffffffff1614151561181a57600080fd5b600e60009054906101000a900473ffffffffffffffffffffffffffffffffffffffff1673ffffffffffffffffffffffffffffffffffffffff167ff8df31144d9c2f0f6b59d69b8b98abd5459d07f2742c4df920b25aae33c6482060405160405180910390a26000600e60006101000a81548173ffffffffffffffffffffffffffffffffffffffff021916908373ffffffffffffffffffffffffffffffffffffffff160217905550565b60106020528060005260406000206000915054906101000a900473ffffffffffffffffffffffffffffffffffffffff1681565b60c78160ff161115151561190957600080fd5b61194583838080601f016020809104026020016040519081016040528093929190818152602001838380828437820191505050505050826123ca565b505050565b600e60009054906101000a900473ffffffffffffffffffffffffffffffffffffffff1681565b606060068054600181600116156101000203166002900480601f016020809104026020016040519081016040528092919081815260200182805460018160011615610100020316600290048015611a085780601f106119dd57610100808354040283529160200191611a08565b820191906000526020600020905b8154815290600101906020018083116119eb57829003601f168201915b5050505050905090565b3373ffffffffffffffffffffffffffffffffffffffff168273ffffffffffffffffffffffffffffffffffffffff1614151515611a4d57600080fd5b80601360003373ffffffffffffffffffffffffffffffffffffffff1673ffffffffffffffffffffffffffffffffffffffff16815260200190815260200160002060008473ffffffffffffffffffffffffffffffffffffffff1673ffffffffffffffffffffffffffffffffffffffff16815260200190815260200160002060006101000a81548160ff0219169083151502179055508173ffffffffffffffffffffffffffffffffffffffff163373ffffffffffffffffffffffffffffffffffffffff167f17307eab39ab6107e8899845ad3d59bd9653f200f220920489ca2b5937696c3183604051808215151515815260200191505060405180910390a35050565b6000600f82815481101515611b5f57fe5b906000526020600020906003020160010160009054906101000a900460ff1660ff169050919050565b600f81815481101515611b9757fe5b9060005260206000209060030201600091509050806000018054600181600116156101000203166002900480601f016020809104026020016040519081016040528092919081815260200182805460018160011615610100020316600290048015611c435780601f10611c1857610100808354040283529160200191611c43565b820191906000526020600020905b815481529060010190602001808311611c2657829003601f168201915b5050505050908060010160009054906101000a900460ff16908060010160019054906101000a900460ff16908060020154905084565b60003373ffffffffffffffffffffffffffffffffffffffff166012600084815260200190815260200160002060009054906101000a900473ffffffffffffffffffffffffffffffffffffffff1673ffffffffffffffffffffffffffffffffffffffff16141515611ce857600080fd5b611cf18261170e565b9050611cfe8133846120f3565b5050565b81611d0d3382612335565b1515611d1857600080fd5b611d238585856111b7565b5050505050565b3373ffffffffffffffffffffffffffffffffffffffff166014600083815260200190815260200160002060000160009054906101000a900473ffffffffffffffffffffffffffffffffffffffff1673ffffffffffffffffffffffffffffffffffffffff16141515611d9a57600080fd5b611da3816122d1565b7f2c56893f6f6026d19bd17b7d05c9f15c522de1ae2b1c3a825f91a73c799321f2816040518082815260200191505060405180910390a150565b6060600c60008381526020019081526020016000208054600181600116156101000203166002900480601f016020809104026020016040519081016040528092919081815260200182805460018160011615610100020316600290048015611e865780601f10611e5b57610100808354040283529160200191611e86565b820191906000526020600020905b815481529060010190602001808311611e6957829003601f168201915b50505050509050919050565b6060611e9d82611514565b1515611ea857600080fd5b600b60008381526020019081526020016000208054600181600116156101000203166002900480601f016020809104026020016040519081016040528092919081815260200182805460018160011615610100020316600290048015611f4f5780601f10611f2457610100808354040283529160200191611f4f565b820191906000526020600020905b815481529060010190602001808311611f3257829003601f168201915b50505050509050919050565b6000601360008473ffffffffffffffffffffffffffffffffffffffff1673ffffffffffffffffffffffffffffffffffffffff16815260200190815260200160002060008373ffffffffffffffffffffffffffffffffffffffff1673ffffffffffffffffffffffffffffffffffffffff16815260200190815260200160002060009054906101000a900460ff16905092915050565b6000600d826040518082805190602001908083835b6020831015156120295780518252602082019150602081019050602083039250612004565b6001836020036101000a0380198251168184511680821785525050505050509050019150509081526020016040518091039020549050919050565b600e60009054906101000a900473ffffffffffffffffffffffffffffffffffffffff1673ffffffffffffffffffffffffffffffffffffffff163373ffffffffffffffffffffffffffffffffffffffff161415156120c057600080fd5b6120c98161264a565b50565b6120d68282612746565b5050565b60008282111515156120e857fe5b818303905092915050565b6121466001601160008573ffffffffffffffffffffffffffffffffffffffff1673ffffffffffffffffffffffffffffffffffffffff1681526020019081526020016000205461231990919063ffffffff16565b601160008473ffffffffffffffffffffffffffffffffffffffff1673ffffffffffffffffffffffffffffffffffffffff168152602001908152602001600020819055506121dc6001601160008673ffffffffffffffffffffffffffffffffffffffff1673ffffffffffffffffffffffffffffffffffffffff168152602001908152602001600020546120da90919063ffffffff16565b601160008573ffffffffffffffffffffffffffffffffffffffff1673ffffffffffffffffffffffffffffffffffffffff16815260200190815260200160002081905550816010600083815260200190815260200160002060006101000a81548173ffffffffffffffffffffffffffffffffffffffff021916908373ffffffffffffffffffffffffffffffffffffffff160217905550808273ffffffffffffffffffffffffffffffffffffffff168473ffffffffffffffffffffffffffffffffffffffff167fddf252ad1be2c89b69c2b068fc378daa952ba7f163c4a11628f55a4df523b3ef60405160405180910390a4505050565b60146000828152602001908152602001600020600080820160006101000a81549073ffffffffffffffffffffffffffffffffffffffff02191690556001820160009055505050565b6000818301905082811015151561232c57fe5b80905092915050565b6000806123418361170e565b90508073ffffffffffffffffffffffffffffffffffffffff168473ffffffffffffffffffffffffffffffffffffffff1614806123b057508373ffffffffffffffffffffffffffffffffffffffff1661239884610ebd565b73ffffffffffffffffffffffffffffffffffffffff16145b806123c157506123c08185611f5b565b5b91505092915050565b60006123d46131ce565b60006123e0853361287e565b92506080604051908101604052808681526020018560ff1681526020016000151581526020018481525091506001600f839080600181540180825580915050906001820390600052602060002090600302016000909192909190915060008201518160000190805190602001906124589291906131fc565b5060208201518160010160006101000a81548160ff021916908360ff16021790555060408201518160010160016101000a81548160ff021916908315150217905550606082015181600201555050039050336010600083815260200190815260200160002060006101000a81548173ffffffffffffffffffffffffffffffffffffffff021916908373ffffffffffffffffffffffffffffffffffffffff16021790555061254e6001601160003373ffffffffffffffffffffffffffffffffffffffff1673ffffffffffffffffffffffffffffffffffffffff1681526020019081526020016000205461231990919063ffffffff16565b601160003373ffffffffffffffffffffffffffffffffffffffff1673ffffffffffffffffffffffffffffffffffffffff168152602001908152602001600020819055507fee52e450f356b13543d4814a17008b85405dd3530911c4de7586cf7c5714245181868660405180848152602001806020018360ff1660ff168152602001828103825284818151815260200191508051906020019080838360005b838110156126075780820151818401526020810190506125ec565b50505050905090810190601f1680156126345780820380516001836020036101000a031916815260200191505b5094505050505060405180910390a15050505050565b600073ffffffffffffffffffffffffffffffffffffffff168173ffffffffffffffffffffffffffffffffffffffff161415151561268657600080fd5b8073ffffffffffffffffffffffffffffffffffffffff16600e60009054906101000a900473ffffffffffffffffffffffffffffffffffffffff1673ffffffffffffffffffffffffffffffffffffffff167f8be0079c531659141344cd1fd0a4f28419497f9722a3daafe3b4186f6b6457e060405160405180910390a380600e60006101000a81548173ffffffffffffffffffffffffffffffffffffffff021916908373ffffffffffffffffffffffffffffffffffffffff16021790555050565b600080600061275585856129b2565b6000600b60008681526020019081526020016000208054600181600116156101000203166002900490501415156127a657600b600085815260200190815260200160002060006127a5919061327c565b5b600a60008581526020019081526020016000205492506127d560016009805490506120da90919063ffffffff16565b91506009828154811015156127e657fe5b906000526020600020015490508060098481548110151561280357fe5b9060005260206000200181905550600060098381548110151561282257fe5b9060005260206000200181905550600980548091906001900361284591906132c4565b506000600a60008681526020019081526020016000208190555082600a6000838152602001908152602001600020819055505050505050565b6000806000600d856040518082805190602001908083835b6020831015156128bb5780518252602082019150602081019050602083039250612896565b6001836020036101000a0380198251168184511680821785525050505050509050019150509081526020016040518091039020541415156128fb57600080fd5b60016009805490500190506129108382612a26565b83600c600083815260200190815260200160002090805190602001906129379291906132f0565b5080600d856040518082805190602001908083835b602083101515612971578051825260208201915060208101905060208303925061294c565b6001836020036101000a0380198251168184511680821785525050505050509050019150509081526020016040518091039020819055508091505092915050565b6129bc8282612a7d565b6129c68282612b80565b80600073ffffffffffffffffffffffffffffffffffffffff168373ffffffffffffffffffffffffffffffffffffffff167fddf252ad1be2c89b69c2b068fc378daa952ba7f163c4a11628f55a4df523b3ef60405160405180910390a45050565b612a308282612d98565b600980549050600a60008381526020019081526020016000208190555060098190806001815401808255809150509060018203906000526020600020016000909192909190915055505050565b8173ffffffffffffffffffffffffffffffffffffffff16612a9d8261170e565b73ffffffffffffffffffffffffffffffffffffffff16141515612abf57600080fd5b600073ffffffffffffffffffffffffffffffffffffffff166002600083815260200190815260200160002060009054906101000a900473ffffffffffffffffffffffffffffffffffffffff1673ffffffffffffffffffffffffffffffffffffffff16141515612b7c5760006002600083815260200190815260200160002060006101000a81548173ffffffffffffffffffffffffffffffffffffffff021916908373ffffffffffffffffffffffffffffffffffffffff1602179055505b5050565b6000806000612b8f8585612e3e565b60086000858152602001908152602001600020549250612bfb6001600760008873ffffffffffffffffffffffffffffffffffffffff1673ffffffffffffffffffffffffffffffffffffffff168152602001908152602001600020805490506120da90919063ffffffff16565b9150600760008673ffffffffffffffffffffffffffffffffffffffff1673ffffffffffffffffffffffffffffffffffffffff16815260200190815260200160002082815481101515612c4957fe5b9060005260206000200154905080600760008773ffffffffffffffffffffffffffffffffffffffff1673ffffffffffffffffffffffffffffffffffffffff16815260200190815260200160002084815481101515612ca357fe5b90600052602060002001819055506000600760008773ffffffffffffffffffffffffffffffffffffffff1673ffffffffffffffffffffffffffffffffffffffff16815260200190815260200160002083815481101515612cff57fe5b9060005260206000200181905550600760008673ffffffffffffffffffffffffffffffffffffffff1673ffffffffffffffffffffffffffffffffffffffff168152602001908152602001600020805480919060019003612d5f91906132c4565b50600060086000868152602001908152602001600020819055508260086000838152602001908152602001600020819055505050505050565b600073ffffffffffffffffffffffffffffffffffffffff168273ffffffffffffffffffffffffffffffffffffffff1614151515612dd457600080fd5b612dde8282612f6d565b808273ffffffffffffffffffffffffffffffffffffffff16600073ffffffffffffffffffffffffffffffffffffffff167fddf252ad1be2c89b69c2b068fc378daa952ba7f163c4a11628f55a4df523b3ef60405160405180910390a45050565b8173ffffffffffffffffffffffffffffffffffffffff16612e5e8261170e565b73ffffffffffffffffffffffffffffffffffffffff16141515612e8057600080fd5b612ed36001600360008573ffffffffffffffffffffffffffffffffffffffff1673ffffffffffffffffffffffffffffffffffffffff168152602001908152602001600020546120da90919063ffffffff16565b600360008473ffffffffffffffffffffffffffffffffffffffff1673ffffffffffffffffffffffffffffffffffffffff1681526020019081526020016000208190555060006001600083815260200190815260200160002060006101000a81548173ffffffffffffffffffffffffffffffffffffffff021916908373ffffffffffffffffffffffffffffffffffffffff1602179055505050565b6000612f798383613044565b600760008473ffffffffffffffffffffffffffffffffffffffff1673ffffffffffffffffffffffffffffffffffffffff168152602001908152602001600020805490509050600760008473ffffffffffffffffffffffffffffffffffffffff1673ffffffffffffffffffffffffffffffffffffffff168152602001908152602001600020829080600181540180825580915050906001820390600052602060002001600090919290919091505550806008600084815260200190815260200160002081905550505050565b600073ffffffffffffffffffffffffffffffffffffffff166001600083815260200190815260200160002060009054906101000a900473ffffffffffffffffffffffffffffffffffffffff1673ffffffffffffffffffffffffffffffffffffffff161415156130b257600080fd5b816001600083815260200190815260200160002060006101000a81548173ffffffffffffffffffffffffffffffffffffffff021916908373ffffffffffffffffffffffffffffffffffffffff1602179055506131576001600360008573ffffffffffffffffffffffffffffffffffffffff1673ffffffffffffffffffffffffffffffffffffffff1681526020019081526020016000205461231990919063ffffffff16565b600360008473ffffffffffffffffffffffffffffffffffffffff1673ffffffffffffffffffffffffffffffffffffffff168152602001908152602001600020819055505050565b6040805190810160405280600073ffffffffffffffffffffffffffffffffffffffff168152602001600081525090565b60806040519081016040528060608152602001600060ff168152602001600015158152602001600081525090565b828054600181600116156101000203166002900490600052602060002090601f016020900481019282601f1061323d57805160ff191683800117855561326b565b8280016001018555821561326b579182015b8281111561326a57825182559160200191906001019061324f565b5b5090506132789190613370565b5090565b50805460018160011615610100020316600290046000825580601f106132a257506132c1565b601f0160209004906000526020600020908101906132c09190613370565b5b50565b8154818355818111156132eb578183600052602060002091820191016132ea9190613370565b5b505050565b828054600181600116156101000203166002900490600052602060002090601f016020900481019282601f1061333157805160ff191683800117855561335f565b8280016001018555821561335f579182015b8281111561335e578251825591602001919060010190613343565b5b50905061336c9190613370565b5090565b61339291905b8082111561338e576000816000905550600101613376565b5090565b905600a165627a7a72305820aab5db49b6fd8692dad81294f6e171bde36f44aa2bb96421934e10dcb3c2a9d60029",
  "source": "pragma solidity ^0.4.24;\r\n\r\nimport \"../node_modules/openzeppelin-solidity/contracts/math/SafeMath.sol\";\r\n\r\nimport \"./LemonadeOwnership.sol\";\r\n\r\ncontract LemonadeSale is LemonadeOwnership {\r\n\r\n    mapping (uint256 => Sale) lemonadeIdToSale;\r\n\r\n    event SaleCreated(uint256 lemonadeId, uint256 price);\r\n    event SaleSuccessful(uint256 lemonadeId, uint256 price, address buyer);\r\n    event SaleCancelled(uint256 lemonadeId);\r\n\r\n    struct Sale {\r\n        address seller;\r\n        uint256 price;\r\n    }\r\n\r\n    //Set lemonade for sale\r\n    function createSale(uint256 _lemonadeId, uint256 _price) public payable onlyOwnerOf(_lemonadeId) {\r\n        Sale memory sale = Sale({\r\n            seller: msg.sender,\r\n            price: _price\r\n        });\r\n        lemonadeIdToSale[_lemonadeId] = sale;\r\n        emit SaleCreated(_lemonadeId, _price);\r\n    }\r\n\r\n    //Withdraw sale\r\n    function cancelSale(uint256 _lemonadeId) public payable {\r\n        require(lemonadeIdToSale[_lemonadeId].seller == msg.sender);\r\n        _removeSale(_lemonadeId);\r\n        emit SaleCancelled(_lemonadeId);\r\n    }\r\n\r\n    function _removeSale(uint256 _lemonadeId) internal {\r\n        delete lemonadeIdToSale[_lemonadeId];\r\n    }\r\n\r\n    function _buy(uint256 _lemonadeId) public payable {\r\n        Sale storage sale = lemonadeIdToSale[_lemonadeId];\r\n        require(msg.value >= sale.price);\r\n\r\n        address seller = sale.seller;\r\n        uint256 price = sale.price;\r\n\r\n        _removeSale(_lemonadeId);\r\n\r\n        seller.transfer(price);\r\n        lemonadeToOwner[_lemonadeId] = msg.sender;\r\n        ownerLemonadeCount[seller] = ownerLemonadeCount[seller].sub(1);\r\n        ownerLemonadeCount[msg.sender] = ownerLemonadeCount[msg.sender].add(1); \r\n    }  \r\n\r\n}",
  "sourcePath": "C:\\Users\\Jonathan\\Documents\\solidity\\solitity-test\\contracts\\LemonadeSale.sol",
  "compiler": {
    "name": "solc",
    "version": "0.4.24+commit.e67f0147.Emscripten.clang"
  },
  "schemaVersion": "2.0.1",
  "updatedAt": "2018-07-25T19:04:00.265Z"
}