{
  "contractName": "LemonadeFactory",
  "abi": [
    {
      "constant": true,
      "inputs": [
        {
          "name": "_interfaceId",
          "type": "bytes4"
        }
      ],
      "name": "supportsInterface",
      "outputs": [
        {
          "name": "",
          "type": "bool"
        }
      ],
      "payable": false,
      "stateMutability": "view",
      "type": "function"
    },
    {
      "constant": true,
      "inputs": [],
      "name": "name",
      "outputs": [
        {
          "name": "",
          "type": "string"
        }
      ],
      "payable": false,
      "stateMutability": "view",
      "type": "function"
    },
    {
      "constant": true,
      "inputs": [
        {
          "name": "_tokenId",
          "type": "uint256"
        }
      ],
      "name": "getApproved",
      "outputs": [
        {
          "name": "",
          "type": "address"
        }
      ],
      "payable": false,
      "stateMutability": "view",
      "type": "function"
    },
    {
      "constant": false,
      "inputs": [
        {
          "name": "_to",
          "type": "address"
        },
        {
          "name": "_tokenId",
          "type": "uint256"
        }
      ],
      "name": "approve",
      "outputs": [],
      "payable": false,
      "stateMutability": "nonpayable",
      "type": "function"
    },
    {
      "constant": true,
      "inputs": [],
      "name": "totalSupply",
      "outputs": [
        {
          "name": "",
          "type": "uint256"
        }
      ],
      "payable": false,
      "stateMutability": "view",
      "type": "function"
    },
    {
      "constant": true,
      "inputs": [],
      "name": "InterfaceId_ERC165",
      "outputs": [
        {
          "name": "",
          "type": "bytes4"
        }
      ],
      "payable": false,
      "stateMutability": "view",
      "type": "function"
    },
    {
      "constant": false,
      "inputs": [
        {
          "name": "_from",
          "type": "address"
        },
        {
          "name": "_to",
          "type": "address"
        },
        {
          "name": "_tokenId",
          "type": "uint256"
        }
      ],
      "name": "transferFrom",
      "outputs": [],
      "payable": false,
      "stateMutability": "nonpayable",
      "type": "function"
    },
    {
      "constant": true,
      "inputs": [
        {
          "name": "_owner",
          "type": "address"
        },
        {
          "name": "_index",
          "type": "uint256"
        }
      ],
      "name": "tokenOfOwnerByIndex",
      "outputs": [
        {
          "name": "",
          "type": "uint256"
        }
      ],
      "payable": false,
      "stateMutability": "view",
      "type": "function"
    },
    {
      "constant": false,
      "inputs": [
        {
          "name": "_from",
          "type": "address"
        },
        {
          "name": "_to",
          "type": "address"
        },
        {
          "name": "_tokenId",
          "type": "uint256"
        }
      ],
      "name": "safeTransferFrom",
      "outputs": [],
      "payable": false,
      "stateMutability": "nonpayable",
      "type": "function"
    },
    {
      "constant": true,
      "inputs": [
        {
          "name": "_tokenId",
          "type": "uint256"
        }
      ],
      "name": "exists",
      "outputs": [
        {
          "name": "",
          "type": "bool"
        }
      ],
      "payable": false,
      "stateMutability": "view",
      "type": "function"
    },
    {
      "constant": true,
      "inputs": [
        {
          "name": "_index",
          "type": "uint256"
        }
      ],
      "name": "tokenByIndex",
      "outputs": [
        {
          "name": "",
          "type": "uint256"
        }
      ],
      "payable": false,
      "stateMutability": "view",
      "type": "function"
    },
    {
      "constant": true,
      "inputs": [
        {
          "name": "_tokenId",
          "type": "uint256"
        }
      ],
      "name": "ownerOf",
      "outputs": [
        {
          "name": "",
          "type": "address"
        }
      ],
      "payable": false,
      "stateMutability": "view",
      "type": "function"
    },
    {
      "constant": true,
      "inputs": [
        {
          "name": "_owner",
          "type": "address"
        }
      ],
      "name": "balanceOf",
      "outputs": [
        {
          "name": "",
          "type": "uint256"
        }
      ],
      "payable": false,
      "stateMutability": "view",
      "type": "function"
    },
    {
      "constant": false,
      "inputs": [],
      "name": "renounceOwnership",
      "outputs": [],
      "payable": false,
      "stateMutability": "nonpayable",
      "type": "function"
    },
    {
      "constant": true,
      "inputs": [
        {
          "name": "",
          "type": "uint256"
        }
      ],
      "name": "lemonadeToOwner",
      "outputs": [
        {
          "name": "",
          "type": "address"
        }
      ],
      "payable": false,
      "stateMutability": "view",
      "type": "function"
    },
    {
      "constant": true,
      "inputs": [],
      "name": "owner",
      "outputs": [
        {
          "name": "",
          "type": "address"
        }
      ],
      "payable": false,
      "stateMutability": "view",
      "type": "function"
    },
    {
      "constant": true,
      "inputs": [],
      "name": "symbol",
      "outputs": [
        {
          "name": "",
          "type": "string"
        }
      ],
      "payable": false,
      "stateMutability": "view",
      "type": "function"
    },
    {
      "constant": false,
      "inputs": [
        {
          "name": "_to",
          "type": "address"
        },
        {
          "name": "_approved",
          "type": "bool"
        }
      ],
      "name": "setApprovalForAll",
      "outputs": [],
      "payable": false,
      "stateMutability": "nonpayable",
      "type": "function"
    },
    {
      "constant": true,
      "inputs": [
        {
          "name": "",
          "type": "uint256"
        }
      ],
      "name": "lemonades",
      "outputs": [
        {
          "name": "name",
          "type": "string"
        },
        {
          "name": "ingredients",
          "type": "uint8"
        },
        {
          "name": "consumed",
          "type": "bool"
        },
        {
          "name": "coin",
          "type": "uint256"
        }
      ],
      "payable": false,
      "stateMutability": "view",
      "type": "function"
    },
    {
      "constant": false,
      "inputs": [
        {
          "name": "_from",
          "type": "address"
        },
        {
          "name": "_to",
          "type": "address"
        },
        {
          "name": "_tokenId",
          "type": "uint256"
        },
        {
          "name": "_data",
          "type": "bytes"
        }
      ],
      "name": "safeTransferFrom",
      "outputs": [],
      "payable": false,
      "stateMutability": "nonpayable",
      "type": "function"
    },
    {
      "constant": true,
      "inputs": [
        {
          "name": "_coinId",
          "type": "uint256"
        }
      ],
      "name": "getCoinName",
      "outputs": [
        {
          "name": "",
          "type": "string"
        }
      ],
      "payable": false,
      "stateMutability": "view",
      "type": "function"
    },
    {
      "constant": true,
      "inputs": [
        {
          "name": "_tokenId",
          "type": "uint256"
        }
      ],
      "name": "tokenURI",
      "outputs": [
        {
          "name": "",
          "type": "string"
        }
      ],
      "payable": false,
      "stateMutability": "view",
      "type": "function"
    },
    {
      "constant": true,
      "inputs": [
        {
          "name": "_owner",
          "type": "address"
        },
        {
          "name": "_operator",
          "type": "address"
        }
      ],
      "name": "isApprovedForAll",
      "outputs": [
        {
          "name": "",
          "type": "bool"
        }
      ],
      "payable": false,
      "stateMutability": "view",
      "type": "function"
    },
    {
      "constant": true,
      "inputs": [
        {
          "name": "_name",
          "type": "string"
        }
      ],
      "name": "getCoinId",
      "outputs": [
        {
          "name": "",
          "type": "uint256"
        }
      ],
      "payable": false,
      "stateMutability": "view",
      "type": "function"
    },
    {
      "constant": false,
      "inputs": [
        {
          "name": "_newOwner",
          "type": "address"
        }
      ],
      "name": "transferOwnership",
      "outputs": [],
      "payable": false,
      "stateMutability": "nonpayable",
      "type": "function"
    },
    {
      "anonymous": false,
      "inputs": [
        {
          "indexed": false,
          "name": "lemonadeId",
          "type": "uint256"
        },
        {
          "indexed": false,
          "name": "name",
          "type": "string"
        },
        {
          "indexed": false,
          "name": "ingredients",
          "type": "uint8"
        }
      ],
      "name": "NewLemonade",
      "type": "event"
    },
    {
      "anonymous": false,
      "inputs": [
        {
          "indexed": true,
          "name": "previousOwner",
          "type": "address"
        }
      ],
      "name": "OwnershipRenounced",
      "type": "event"
    },
    {
      "anonymous": false,
      "inputs": [
        {
          "indexed": true,
          "name": "previousOwner",
          "type": "address"
        },
        {
          "indexed": true,
          "name": "newOwner",
          "type": "address"
        }
      ],
      "name": "OwnershipTransferred",
      "type": "event"
    },
    {
      "anonymous": false,
      "inputs": [
        {
          "indexed": true,
          "name": "_from",
          "type": "address"
        },
        {
          "indexed": true,
          "name": "_to",
          "type": "address"
        },
        {
          "indexed": true,
          "name": "_tokenId",
          "type": "uint256"
        }
      ],
      "name": "Transfer",
      "type": "event"
    },
    {
      "anonymous": false,
      "inputs": [
        {
          "indexed": true,
          "name": "_owner",
          "type": "address"
        },
        {
          "indexed": true,
          "name": "_approved",
          "type": "address"
        },
        {
          "indexed": true,
          "name": "_tokenId",
          "type": "uint256"
        }
      ],
      "name": "Approval",
      "type": "event"
    },
    {
      "anonymous": false,
      "inputs": [
        {
          "indexed": true,
          "name": "_owner",
          "type": "address"
        },
        {
          "indexed": true,
          "name": "_operator",
          "type": "address"
        },
        {
          "indexed": false,
          "name": "_approved",
          "type": "bool"
        }
      ],
      "name": "ApprovalForAll",
      "type": "event"
    },
    {
      "constant": false,
      "inputs": [
        {
          "name": "_name",
          "type": "string"
        },
        {
          "name": "_ingredients",
          "type": "uint8"
        }
      ],
      "name": "createLemonade",
      "outputs": [],
      "payable": false,
      "stateMutability": "nonpayable",
      "type": "function"
    },
    {
      "constant": false,
      "inputs": [
        {
          "name": "_lemonadeId",
          "type": "uint256"
        }
      ],
      "name": "consumeLemonade",
      "outputs": [],
      "payable": false,
      "stateMutability": "nonpayable",
      "type": "function"
    },
    {
      "constant": true,
      "inputs": [
        {
          "name": "_lemonadeId",
          "type": "uint256"
        }
      ],
      "name": "getLemonadeCoin",
      "outputs": [
        {
          "name": "",
          "type": "uint256"
        }
      ],
      "payable": false,
      "stateMutability": "view",
      "type": "function"
    },
    {
      "constant": true,
      "inputs": [
        {
          "name": "_lemonadeId",
          "type": "uint256"
        }
      ],
      "name": "getLemonadeIngredients",
      "outputs": [
        {
          "name": "",
          "type": "uint256"
        }
      ],
      "payable": false,
      "stateMutability": "view",
      "type": "function"
    }
  ],
  "bytecode": "0x60806040526040805190810160405280600c81526020017f4c656d6f6e616465436f696e00000000000000000000000000000000000000008152506040805190810160405280600381526020017f4c4d430000000000000000000000000000000000000000000000000000000000815250620000ad6301ffc9a77c0100000000000000000000000000000000000000000000000000000000026200021c640100000000026401000000009004565b620000ea6380ac58cd7c0100000000000000000000000000000000000000000000000000000000026200021c640100000000026401000000009004565b62000127634f558e797c0100000000000000000000000000000000000000000000000000000000026200021c640100000000026401000000009004565b81600590805190602001906200013f929190620002da565b50806006908051906020019062000158929190620002da565b506200019663780e9d637c0100000000000000000000000000000000000000000000000000000000026200021c640100000000026401000000009004565b620001d3635b5e139f7c0100000000000000000000000000000000000000000000000000000000026200021c640100000000026401000000009004565b505033600e60006101000a81548173ffffffffffffffffffffffffffffffffffffffff021916908373ffffffffffffffffffffffffffffffffffffffff16021790555062000389565b63ffffffff7c010000000000000000000000000000000000000000000000000000000002817bffffffffffffffffffffffffffffffffffffffffffffffffffffffff1916141515156200026e57600080fd5b6001600080837bffffffffffffffffffffffffffffffffffffffffffffffffffffffff19167bffffffffffffffffffffffffffffffffffffffffffffffffffffffff1916815260200190815260200160002060006101000a81548160ff02191690831515021790555050565b828054600181600116156101000203166002900490600052602060002090601f016020900481019282601f106200031d57805160ff19168380011785556200034e565b828001600101855582156200034e579182015b828111156200034d57825182559160200191906001019062000330565b5b5090506200035d919062000361565b5090565b6200038691905b808211156200038257600081600090555060010162000368565b5090565b90565b612f6880620003996000396000f300608060405260043610610175576000357c0100000000000000000000000000000000000000000000000000000000900463ffffffff16806301ffc9a71461017a57806306fdde03146101de578063081812fc1461026e578063095ea7b3146102db57806318160ddd1461032857806319a83d661461035357806319fa8f501461038057806323b872dd146103e95780632f745c591461045657806342842e0e146104b75780634f558e79146105245780634f6ccce7146105695780636352211e146105aa5780636bea0dad1461061757806370a0823114610658578063715018a6146106af578063750929de146106c657806388056424146107335780638da5cb5b1461077b57806395d89b41146107d2578063a22cb46514610862578063a46fe22b146108b1578063b2cf38e3146108f2578063b88d4fde146109b7578063c1f0ecbd14610a6a578063c87b56dd14610b10578063e985e9c514610bb6578063eabfee1414610c31578063f2fde38b14610cae575b600080fd5b34801561018657600080fd5b506101c460048036038101908080357bffffffffffffffffffffffffffffffffffffffffffffffffffffffff19169060200190929190505050610cf1565b604051808215151515815260200191505060405180910390f35b3480156101ea57600080fd5b506101f3610d58565b6040518080602001828103825283818151815260200191508051906020019080838360005b83811015610233578082015181840152602081019050610218565b50505050905090810190601f1680156102605780820380516001836020036101000a031916815260200191505b509250505060405180910390f35b34801561027a57600080fd5b5061029960048036038101908080359060200190929190505050610dfa565b604051808273ffffffffffffffffffffffffffffffffffffffff1673ffffffffffffffffffffffffffffffffffffffff16815260200191505060405180910390f35b3480156102e757600080fd5b50610326600480360381019080803573ffffffffffffffffffffffffffffffffffffffff16906020019092919080359060200190929190505050610e37565b005b34801561033457600080fd5b5061033d610f7c565b6040518082815260200191505060405180910390f35b34801561035f57600080fd5b5061037e60048036038101908080359060200190929190505050610f89565b005b34801561038c57600080fd5b506103956110f2565b60405180827bffffffffffffffffffffffffffffffffffffffffffffffffffffffff19167bffffffffffffffffffffffffffffffffffffffffffffffffffffffff1916815260200191505060405180910390f35b3480156103f557600080fd5b50610454600480360381019080803573ffffffffffffffffffffffffffffffffffffffff169060200190929190803573ffffffffffffffffffffffffffffffffffffffff16906020019092919080359060200190929190505050611119565b005b34801561046257600080fd5b506104a1600480360381019080803573ffffffffffffffffffffffffffffffffffffffff16906020019092919080359060200190929190505050611226565b6040518082815260200191505060405180910390f35b3480156104c357600080fd5b50610522600480360381019080803573ffffffffffffffffffffffffffffffffffffffff169060200190929190803573ffffffffffffffffffffffffffffffffffffffff1690602001909291908035906020019092919050505061129d565b005b34801561053057600080fd5b5061054f600480360381019080803590602001909291905050506112d5565b604051808215151515815260200191505060405180910390f35b34801561057557600080fd5b5061059460048036038101908080359060200190929190505050611347565b6040518082815260200191505060405180910390f35b3480156105b657600080fd5b506105d56004803603810190808035906020019092919050505061137f565b604051808273ffffffffffffffffffffffffffffffffffffffff1673ffffffffffffffffffffffffffffffffffffffff16815260200191505060405180910390f35b34801561062357600080fd5b50610642600480360381019080803590602001909291905050506113fd565b6040518082815260200191505060405180910390f35b34801561066457600080fd5b50610699600480360381019080803573ffffffffffffffffffffffffffffffffffffffff169060200190929190505050611427565b6040518082815260200191505060405180910390f35b3480156106bb57600080fd5b506106c46114ab565b005b3480156106d257600080fd5b506106f1600480360381019080803590602001909291905050506115b0565b604051808273ffffffffffffffffffffffffffffffffffffffff1673ffffffffffffffffffffffffffffffffffffffff16815260200191505060405180910390f35b34801561073f57600080fd5b50610779600480360381019080803590602001908201803590602001919091929391929390803560ff1690602001909291905050506115e3565b005b34801561078757600080fd5b50610790611637565b604051808273ffffffffffffffffffffffffffffffffffffffff1673ffffffffffffffffffffffffffffffffffffffff16815260200191505060405180910390f35b3480156107de57600080fd5b506107e761165d565b6040518080602001828103825283818151815260200191508051906020019080838360005b8381101561082757808201518184015260208101905061080c565b50505050905090810190601f1680156108545780820380516001836020036101000a031916815260200191505b509250505060405180910390f35b34801561086e57600080fd5b506108af600480360381019080803573ffffffffffffffffffffffffffffffffffffffff1690602001909291908035151590602001909291905050506116ff565b005b3480156108bd57600080fd5b506108dc6004803603810190808035906020019092919050505061183b565b6040518082815260200191505060405180910390f35b3480156108fe57600080fd5b5061091d60048036038101908080359060200190929190505050611875565b60405180806020018560ff1660ff16815260200184151515158152602001838152602001828103825286818151815260200191508051906020019080838360005b8381101561097957808201518184015260208101905061095e565b50505050905090810190601f1680156109a65780820380516001836020036101000a031916815260200191505b509550505050505060405180910390f35b3480156109c357600080fd5b50610a68600480360381019080803573ffffffffffffffffffffffffffffffffffffffff169060200190929190803573ffffffffffffffffffffffffffffffffffffffff16906020019092919080359060200190929190803590602001908201803590602001908080601f0160208091040260200160405190810160405280939291908181526020018383808284378201915050505050509192919290505050611966565b005b348015610a7657600080fd5b50610a95600480360381019080803590602001909291905050506119a5565b6040518080602001828103825283818151815260200191508051906020019080838360005b83811015610ad5578082015181840152602081019050610aba565b50505050905090810190601f168015610b025780820380516001836020036101000a031916815260200191505b509250505060405180910390f35b348015610b1c57600080fd5b50610b3b60048036038101908080359060200190929190505050611a5a565b6040518080602001828103825283818151815260200191508051906020019080838360005b83811015610b7b578082015181840152602081019050610b60565b50505050905090810190601f168015610ba85780820380516001836020036101000a031916815260200191505b509250505060405180910390f35b348015610bc257600080fd5b50610c17600480360381019080803573ffffffffffffffffffffffffffffffffffffffff169060200190929190803573ffffffffffffffffffffffffffffffffffffffff169060200190929190505050611b23565b604051808215151515815260200191505060405180910390f35b348015610c3d57600080fd5b50610c98600480360381019080803590602001908201803590602001908080601f0160208091040260200160405190810160405280939291908181526020018383808284378201915050505050509192919290505050611bb7565b6040518082815260200191505060405180910390f35b348015610cba57600080fd5b50610cef600480360381019080803573ffffffffffffffffffffffffffffffffffffffff169060200190929190505050611c2c565b005b6000806000837bffffffffffffffffffffffffffffffffffffffffffffffffffffffff19167bffffffffffffffffffffffffffffffffffffffffffffffffffffffff1916815260200190815260200160002060009054906101000a900460ff169050919050565b606060058054600181600116156101000203166002900480601f016020809104026020016040519081016040528092919081815260200182805460018160011615610100020316600290048015610df05780601f10610dc557610100808354040283529160200191610df0565b820191906000526020600020905b815481529060010190602001808311610dd357829003601f168201915b5050505050905090565b60006002600083815260200190815260200160002060009054906101000a900473ffffffffffffffffffffffffffffffffffffffff169050919050565b6000610e428261137f565b90508073ffffffffffffffffffffffffffffffffffffffff168373ffffffffffffffffffffffffffffffffffffffff1614151515610e7f57600080fd5b8073ffffffffffffffffffffffffffffffffffffffff163373ffffffffffffffffffffffffffffffffffffffff161480610ebf5750610ebe8133611b23565b5b1515610eca57600080fd5b826002600084815260200190815260200160002060006101000a81548173ffffffffffffffffffffffffffffffffffffffff021916908373ffffffffffffffffffffffffffffffffffffffff160217905550818373ffffffffffffffffffffffffffffffffffffffff168273ffffffffffffffffffffffffffffffffffffffff167f8c5be1e5ebec7d5bd14f71427d1e84f3dd0314c0f7b2291e5b200ac8c7c3b92560405160405180910390a4505050565b6000600980549050905090565b3373ffffffffffffffffffffffffffffffffffffffff166010600083815260200190815260200160002060009054906101000a900473ffffffffffffffffffffffffffffffffffffffff1673ffffffffffffffffffffffffffffffffffffffff16141515610ff657600080fd5b6001600f8281548110151561100757fe5b906000526020600020906003020160010160016101000a81548160ff02191690831515021790555061105933600f8381548110151561104257fe5b906000526020600020906003020160020154611c94565b6110ac6001601160003373ffffffffffffffffffffffffffffffffffffffff1673ffffffffffffffffffffffffffffffffffffffff16815260200190815260200160002054611ca290919063ffffffff16565b601160003373ffffffffffffffffffffffffffffffffffffffff1673ffffffffffffffffffffffffffffffffffffffff1681526020019081526020016000208190555050565b6301ffc9a77c01000000000000000000000000000000000000000000000000000000000281565b806111243382611cbb565b151561112f57600080fd5b600073ffffffffffffffffffffffffffffffffffffffff168473ffffffffffffffffffffffffffffffffffffffff161415151561116b57600080fd5b600073ffffffffffffffffffffffffffffffffffffffff168373ffffffffffffffffffffffffffffffffffffffff16141515156111a757600080fd5b6111b18483611d50565b6111bb8483611e53565b6111c5838361206b565b818373ffffffffffffffffffffffffffffffffffffffff168573ffffffffffffffffffffffffffffffffffffffff167fddf252ad1be2c89b69c2b068fc378daa952ba7f163c4a11628f55a4df523b3ef60405160405180910390a450505050565b600061123183611427565b8210151561123e57600080fd5b600760008473ffffffffffffffffffffffffffffffffffffffff1673ffffffffffffffffffffffffffffffffffffffff1681526020019081526020016000208281548110151561128a57fe5b9060005260206000200154905092915050565b806112a83382611cbb565b15156112b357600080fd5b6112cf8484846020604051908101604052806000815250611966565b50505050565b6000806001600084815260200190815260200160002060009054906101000a900473ffffffffffffffffffffffffffffffffffffffff169050600073ffffffffffffffffffffffffffffffffffffffff168173ffffffffffffffffffffffffffffffffffffffff161415915050919050565b6000611351610f7c565b8210151561135e57600080fd5b60098281548110151561136d57fe5b90600052602060002001549050919050565b6000806001600084815260200190815260200160002060009054906101000a900473ffffffffffffffffffffffffffffffffffffffff169050600073ffffffffffffffffffffffffffffffffffffffff168173ffffffffffffffffffffffffffffffffffffffff16141515156113f457600080fd5b80915050919050565b6000600f8281548110151561140e57fe5b9060005260206000209060030201600201549050919050565b60008073ffffffffffffffffffffffffffffffffffffffff168273ffffffffffffffffffffffffffffffffffffffff161415151561146457600080fd5b600360008373ffffffffffffffffffffffffffffffffffffffff1673ffffffffffffffffffffffffffffffffffffffff168152602001908152602001600020549050919050565b600e60009054906101000a900473ffffffffffffffffffffffffffffffffffffffff1673ffffffffffffffffffffffffffffffffffffffff163373ffffffffffffffffffffffffffffffffffffffff1614151561150757600080fd5b600e60009054906101000a900473ffffffffffffffffffffffffffffffffffffffff1673ffffffffffffffffffffffffffffffffffffffff167ff8df31144d9c2f0f6b59d69b8b98abd5459d07f2742c4df920b25aae33c6482060405160405180910390a26000600e60006101000a81548173ffffffffffffffffffffffffffffffffffffffff021916908373ffffffffffffffffffffffffffffffffffffffff160217905550565b60106020528060005260406000206000915054906101000a900473ffffffffffffffffffffffffffffffffffffffff1681565b60c78160ff16111515156115f657600080fd5b61163283838080601f01602080910402602001604051908101604052809392919081815260200183838082843782019150505050505082612142565b505050565b600e60009054906101000a900473ffffffffffffffffffffffffffffffffffffffff1681565b606060068054600181600116156101000203166002900480601f0160208091040260200160405190810160405280929190818152602001828054600181600116156101000203166002900480156116f55780601f106116ca576101008083540402835291602001916116f5565b820191906000526020600020905b8154815290600101906020018083116116d857829003601f168201915b5050505050905090565b3373ffffffffffffffffffffffffffffffffffffffff168273ffffffffffffffffffffffffffffffffffffffff161415151561173a57600080fd5b80600460003373ffffffffffffffffffffffffffffffffffffffff1673ffffffffffffffffffffffffffffffffffffffff16815260200190815260200160002060008473ffffffffffffffffffffffffffffffffffffffff1673ffffffffffffffffffffffffffffffffffffffff16815260200190815260200160002060006101000a81548160ff0219169083151502179055508173ffffffffffffffffffffffffffffffffffffffff163373ffffffffffffffffffffffffffffffffffffffff167f17307eab39ab6107e8899845ad3d59bd9653f200f220920489ca2b5937696c3183604051808215151515815260200191505060405180910390a35050565b6000600f8281548110151561184c57fe5b906000526020600020906003020160010160009054906101000a900460ff1660ff169050919050565b600f8181548110151561188457fe5b9060005260206000209060030201600091509050806000018054600181600116156101000203166002900480601f0160208091040260200160405190810160405280929190818152602001828054600181600116156101000203166002900480156119305780601f1061190557610100808354040283529160200191611930565b820191906000526020600020905b81548152906001019060200180831161191357829003601f168201915b5050505050908060010160009054906101000a900460ff16908060010160019054906101000a900460ff16908060020154905084565b816119713382611cbb565b151561197c57600080fd5b611987858585611119565b611993858585856123c2565b151561199e57600080fd5b5050505050565b6060600c60008381526020019081526020016000208054600181600116156101000203166002900480601f016020809104026020016040519081016040528092919081815260200182805460018160011615610100020316600290048015611a4e5780601f10611a2357610100808354040283529160200191611a4e565b820191906000526020600020905b815481529060010190602001808311611a3157829003601f168201915b50505050509050919050565b6060611a65826112d5565b1515611a7057600080fd5b600b60008381526020019081526020016000208054600181600116156101000203166002900480601f016020809104026020016040519081016040528092919081815260200182805460018160011615610100020316600290048015611b175780601f10611aec57610100808354040283529160200191611b17565b820191906000526020600020905b815481529060010190602001808311611afa57829003601f168201915b50505050509050919050565b6000600460008473ffffffffffffffffffffffffffffffffffffffff1673ffffffffffffffffffffffffffffffffffffffff16815260200190815260200160002060008373ffffffffffffffffffffffffffffffffffffffff1673ffffffffffffffffffffffffffffffffffffffff16815260200190815260200160002060009054906101000a900460ff16905092915050565b6000600d826040518082805190602001908083835b602083101515611bf15780518252602082019150602081019050602083039250611bcc565b6001836020036101000a0380198251168184511680821785525050505050509050019150509081526020016040518091039020549050919050565b600e60009054906101000a900473ffffffffffffffffffffffffffffffffffffffff1673ffffffffffffffffffffffffffffffffffffffff163373ffffffffffffffffffffffffffffffffffffffff16141515611c8857600080fd5b611c91816125e4565b50565b611c9e82826126e0565b5050565b6000828211151515611cb057fe5b818303905092915050565b600080611cc78361137f565b90508073ffffffffffffffffffffffffffffffffffffffff168473ffffffffffffffffffffffffffffffffffffffff161480611d3657508373ffffffffffffffffffffffffffffffffffffffff16611d1e84610dfa565b73ffffffffffffffffffffffffffffffffffffffff16145b80611d475750611d468185611b23565b5b91505092915050565b8173ffffffffffffffffffffffffffffffffffffffff16611d708261137f565b73ffffffffffffffffffffffffffffffffffffffff16141515611d9257600080fd5b600073ffffffffffffffffffffffffffffffffffffffff166002600083815260200190815260200160002060009054906101000a900473ffffffffffffffffffffffffffffffffffffffff1673ffffffffffffffffffffffffffffffffffffffff16141515611e4f5760006002600083815260200190815260200160002060006101000a81548173ffffffffffffffffffffffffffffffffffffffff021916908373ffffffffffffffffffffffffffffffffffffffff1602179055505b5050565b6000806000611e628585612818565b60086000858152602001908152602001600020549250611ece6001600760008873ffffffffffffffffffffffffffffffffffffffff1673ffffffffffffffffffffffffffffffffffffffff16815260200190815260200160002080549050611ca290919063ffffffff16565b9150600760008673ffffffffffffffffffffffffffffffffffffffff1673ffffffffffffffffffffffffffffffffffffffff16815260200190815260200160002082815481101515611f1c57fe5b9060005260206000200154905080600760008773ffffffffffffffffffffffffffffffffffffffff1673ffffffffffffffffffffffffffffffffffffffff16815260200190815260200160002084815481101515611f7657fe5b90600052602060002001819055506000600760008773ffffffffffffffffffffffffffffffffffffffff1673ffffffffffffffffffffffffffffffffffffffff16815260200190815260200160002083815481101515611fd257fe5b9060005260206000200181905550600760008673ffffffffffffffffffffffffffffffffffffffff1673ffffffffffffffffffffffffffffffffffffffff1681526020019081526020016000208054809190600190036120329190612d75565b50600060086000868152602001908152602001600020819055508260086000838152602001908152602001600020819055505050505050565b60006120778383612947565b600760008473ffffffffffffffffffffffffffffffffffffffff1673ffffffffffffffffffffffffffffffffffffffff168152602001908152602001600020805490509050600760008473ffffffffffffffffffffffffffffffffffffffff1673ffffffffffffffffffffffffffffffffffffffff168152602001908152602001600020829080600181540180825580915050906001820390600052602060002001600090919290919091505550806008600084815260200190815260200160002081905550505050565b600061214c612da1565b60006121588533612aa1565b92506080604051908101604052808681526020018560ff1681526020016000151581526020018481525091506001600f839080600181540180825580915050906001820390600052602060002090600302016000909192909190915060008201518160000190805190602001906121d0929190612dcf565b5060208201518160010160006101000a81548160ff021916908360ff16021790555060408201518160010160016101000a81548160ff021916908315150217905550606082015181600201555050039050336010600083815260200190815260200160002060006101000a81548173ffffffffffffffffffffffffffffffffffffffff021916908373ffffffffffffffffffffffffffffffffffffffff1602179055506122c66001601160003373ffffffffffffffffffffffffffffffffffffffff1673ffffffffffffffffffffffffffffffffffffffff16815260200190815260200160002054612bd590919063ffffffff16565b601160003373ffffffffffffffffffffffffffffffffffffffff1673ffffffffffffffffffffffffffffffffffffffff168152602001908152602001600020819055507fee52e450f356b13543d4814a17008b85405dd3530911c4de7586cf7c5714245181868660405180848152602001806020018360ff1660ff168152602001828103825284818151815260200191508051906020019080838360005b8381101561237f578082015181840152602081019050612364565b50505050905090810190601f1680156123ac5780820380516001836020036101000a031916815260200191505b5094505050505060405180910390a15050505050565b6000806123e48573ffffffffffffffffffffffffffffffffffffffff16612bf1565b15156123f357600191506125db565b8473ffffffffffffffffffffffffffffffffffffffff1663150b7a02338887876040518563ffffffff167c0100000000000000000000000000000000000000000000000000000000028152600401808573ffffffffffffffffffffffffffffffffffffffff1673ffffffffffffffffffffffffffffffffffffffff1681526020018473ffffffffffffffffffffffffffffffffffffffff1673ffffffffffffffffffffffffffffffffffffffff16815260200183815260200180602001828103825283818151815260200191508051906020019080838360005b838110156124e85780820151818401526020810190506124cd565b50505050905090810190601f1680156125155780820380516001836020036101000a031916815260200191505b5095505050505050602060405180830381600087803b15801561253757600080fd5b505af115801561254b573d6000803e3d6000fd5b505050506040513d602081101561256157600080fd5b8101908080519060200190929190505050905063150b7a027c0100000000000000000000000000000000000000000000000000000000027bffffffffffffffffffffffffffffffffffffffffffffffffffffffff1916817bffffffffffffffffffffffffffffffffffffffffffffffffffffffff19161491505b50949350505050565b600073ffffffffffffffffffffffffffffffffffffffff168173ffffffffffffffffffffffffffffffffffffffff161415151561262057600080fd5b8073ffffffffffffffffffffffffffffffffffffffff16600e60009054906101000a900473ffffffffffffffffffffffffffffffffffffffff1673ffffffffffffffffffffffffffffffffffffffff167f8be0079c531659141344cd1fd0a4f28419497f9722a3daafe3b4186f6b6457e060405160405180910390a380600e60006101000a81548173ffffffffffffffffffffffffffffffffffffffff021916908373ffffffffffffffffffffffffffffffffffffffff16021790555050565b60008060006126ef8585612c04565b6000600b600086815260200190815260200160002080546001816001161561010002031660029004905014151561274057600b6000858152602001908152602001600020600061273f9190612e4f565b5b600a600085815260200190815260200160002054925061276f6001600980549050611ca290919063ffffffff16565b915060098281548110151561278057fe5b906000526020600020015490508060098481548110151561279d57fe5b906000526020600020018190555060006009838154811015156127bc57fe5b906000526020600020018190555060098054809190600190036127df9190612d75565b506000600a60008681526020019081526020016000208190555082600a6000838152602001908152602001600020819055505050505050565b8173ffffffffffffffffffffffffffffffffffffffff166128388261137f565b73ffffffffffffffffffffffffffffffffffffffff1614151561285a57600080fd5b6128ad6001600360008573ffffffffffffffffffffffffffffffffffffffff1673ffffffffffffffffffffffffffffffffffffffff16815260200190815260200160002054611ca290919063ffffffff16565b600360008473ffffffffffffffffffffffffffffffffffffffff1673ffffffffffffffffffffffffffffffffffffffff1681526020019081526020016000208190555060006001600083815260200190815260200160002060006101000a81548173ffffffffffffffffffffffffffffffffffffffff021916908373ffffffffffffffffffffffffffffffffffffffff1602179055505050565b600073ffffffffffffffffffffffffffffffffffffffff166001600083815260200190815260200160002060009054906101000a900473ffffffffffffffffffffffffffffffffffffffff1673ffffffffffffffffffffffffffffffffffffffff161415156129b557600080fd5b816001600083815260200190815260200160002060006101000a81548173ffffffffffffffffffffffffffffffffffffffff021916908373ffffffffffffffffffffffffffffffffffffffff160217905550612a5a6001600360008573ffffffffffffffffffffffffffffffffffffffff1673ffffffffffffffffffffffffffffffffffffffff16815260200190815260200160002054612bd590919063ffffffff16565b600360008473ffffffffffffffffffffffffffffffffffffffff1673ffffffffffffffffffffffffffffffffffffffff168152602001908152602001600020819055505050565b6000806000600d856040518082805190602001908083835b602083101515612ade5780518252602082019150602081019050602083039250612ab9565b6001836020036101000a038019825116818451168082178552505050505050905001915050908152602001604051809103902054141515612b1e57600080fd5b6001600980549050019050612b338382612c78565b83600c60008381526020019081526020016000209080519060200190612b5a929190612e97565b5080600d856040518082805190602001908083835b602083101515612b945780518252602082019150602081019050602083039250612b6f565b6001836020036101000a0380198251168184511680821785525050505050509050019150509081526020016040518091039020819055508091505092915050565b60008183019050828110151515612be857fe5b80905092915050565b600080823b905060008111915050919050565b612c0e8282611d50565b612c188282611e53565b80600073ffffffffffffffffffffffffffffffffffffffff168373ffffffffffffffffffffffffffffffffffffffff167fddf252ad1be2c89b69c2b068fc378daa952ba7f163c4a11628f55a4df523b3ef60405160405180910390a45050565b612c828282612ccf565b600980549050600a60008381526020019081526020016000208190555060098190806001815401808255809150509060018203906000526020600020016000909192909190915055505050565b600073ffffffffffffffffffffffffffffffffffffffff168273ffffffffffffffffffffffffffffffffffffffff1614151515612d0b57600080fd5b612d15828261206b565b808273ffffffffffffffffffffffffffffffffffffffff16600073ffffffffffffffffffffffffffffffffffffffff167fddf252ad1be2c89b69c2b068fc378daa952ba7f163c4a11628f55a4df523b3ef60405160405180910390a45050565b815481835581811115612d9c57818360005260206000209182019101612d9b9190612f17565b5b505050565b60806040519081016040528060608152602001600060ff168152602001600015158152602001600081525090565b828054600181600116156101000203166002900490600052602060002090601f016020900481019282601f10612e1057805160ff1916838001178555612e3e565b82800160010185558215612e3e579182015b82811115612e3d578251825591602001919060010190612e22565b5b509050612e4b9190612f17565b5090565b50805460018160011615610100020316600290046000825580601f10612e755750612e94565b601f016020900490600052602060002090810190612e939190612f17565b5b50565b828054600181600116156101000203166002900490600052602060002090601f016020900481019282601f10612ed857805160ff1916838001178555612f06565b82800160010185558215612f06579182015b82811115612f05578251825591602001919060010190612eea565b5b509050612f139190612f17565b5090565b612f3991905b80821115612f35576000816000905550600101612f1d565b5090565b905600a165627a7a72305820470c4fe6f84b2b4b87873f7526fc80ddd0f0d2dea876f1435c89ffee9a8e10150029",
  "source": "pragma solidity ^0.4.24;\r\n\r\nimport \"../node_modules/openzeppelin-solidity/contracts/ownership/Ownable.sol\";\r\nimport \"../node_modules/openzeppelin-solidity/contracts/math/SafeMath.sol\";\r\n\r\nimport \"./LemonadeCoin.sol\";\r\n\r\n/// @title A contract to make Lemonade\r\n/// @author Jonathan Syland-Lier\r\n/// @notice Makes lemonade by simple recipe\r\ncontract LemonadeFactory is LemonadeCoin, Ownable {\r\n\r\n    using SafeMath for uint256; \r\n\r\n    event NewLemonade(uint lemonadeId, string name, uint8 ingredients);\r\n\r\n    modifier onlyOwnerOf(uint256 _lemonadeId) {\r\n        require(msg.sender == lemonadeToOwner[_lemonadeId]);\r\n        _;\r\n    }\r\n\r\n    struct Lemonade {\r\n        string name;\r\n        uint8 ingredients; //ingredient is a number from 0 to 199. Eks: 198 - 1 is water, 9 is sugar and 8 is lemon\r\n        bool consumed;\r\n        uint256 coin;\r\n    }\r\n\r\n    Lemonade[] public lemonades;\r\n\r\n    mapping (uint => address) public lemonadeToOwner;\r\n    mapping (address => uint) ownerLemonadeCount;\r\n\r\n    /**\r\n    * Private - Internals\r\n    */\r\n\r\n    function _createLemonade(string _name, uint8 _ingredients) internal {\r\n        uint256 _coin = _createCoin(_name, msg.sender);\r\n        Lemonade memory lemonade = Lemonade({\r\n            name: _name,\r\n            ingredients: _ingredients,\r\n            consumed: false,\r\n            coin: _coin\r\n        });\r\n        uint256 id = lemonades.push(lemonade) - 1;\r\n        lemonadeToOwner[id] = msg.sender;\r\n        ownerLemonadeCount[msg.sender] = ownerLemonadeCount[msg.sender].add(1);\r\n        emit NewLemonade(id, _name, _ingredients);\r\n    }\r\n\r\n    /**\r\n    * Externals\r\n    */\r\n\r\n    ///@notice Creates new Lemonade and mint a coin with it\r\n    function createLemonade(string _name, uint8 _ingredients) external {\r\n        require(_ingredients <= 199);  \r\n        _createLemonade(_name, _ingredients);\r\n    }\r\n\r\n    ///@notice Owner consumes the lemonade and we burn the coin\r\n    function consumeLemonade(uint256 _lemonadeId) external {\r\n        require(lemonadeToOwner[_lemonadeId] == msg.sender);\r\n        lemonades[_lemonadeId].consumed = true;\r\n        _burnCoin(msg.sender, lemonades[_lemonadeId].coin);\r\n        ownerLemonadeCount[msg.sender] = ownerLemonadeCount[msg.sender].sub(1);\r\n    }\r\n\r\n    /**\r\n    * Public\r\n    */\r\n\r\n    function getLemonadeCoin(uint256 _lemonadeId) public view returns(uint256) {\r\n        return lemonades[_lemonadeId].coin;\r\n    }\r\n\r\n    function getLemonadeIngredients(uint256 _lemonadeId) public view returns(uint256) {\r\n        return lemonades[_lemonadeId].ingredients;\r\n    }\r\n\r\n}",
  "sourcePath": "C:\\Users\\Jonathan\\Documents\\solidity\\solitity-test\\contracts\\LemonadeFactory.sol",
  "compiler": {
    "name": "solc",
    "version": "0.4.24+commit.e67f0147.Emscripten.clang"
  },
  "schemaVersion": "2.0.1",
  "updatedAt": "2018-07-25T19:04:00.275Z"
}